:020000040800F2
:10000000005000203D1400088D1400088D140008D5
:100010008D1400088D1400088D14000800000000E5
:100020000000000000000000000000008D14000827
:100030008D140008000000008D1400088D140008C5
:100040008D1400088D1400088D1400088D1400080C
:100050008D1400088D140008AD050008D1050008B6
:10006000F5050008190600083D0600088D14000873
:100070008D1400088D1400088D1400088D140008DC
:100080008D1400088D1400088D1400088D140008CC
:100090008D1400088D1400088D14000861060008F6
:1000A0008D1400088D1400088D1400088D140008AC
:1000B0008D1400088D1400088D1400088D1400089C
:1000C0008D1400088D1400088D1400083D0E0008E2
:1000D000950E0008E5120008F91200080D1300083B
:1000E000110700088D140008000000008D1400089E
:1000F0008D1400088D1400088D1400088D1400085C
:100100008D1400088D1400088D1400088D1400084B
:100110008D1400088D1400088D1400088D1400083B
:100120008D1400088D1400088D1400088D1400082B
:1001300010B5054C237833B9044B13B10448AFF321
:1001400000800123237010BD180000200000000073
:10015000D814000808B5034B1BB103490348AFF39B
:10016000008008BD000000001C000020D81400081A
:1001700080B586B000AF2F4B1B687B612E4B1B6890
:100180003B612E4B1B68FB602D4B1B68BB602D4BEE
:100190001B687B602C4B1B683B6007F114031946FE
:1001A0002A4800F01DFB07F110031946274800F00C
:1001B00017FB07F10C031946244800F011FB07F167
:1001C00008031946214800F00BFB3B1D1946204847
:1001D00000F006FB3B4619461D4800F001FB0320DA
:1001E00000F038F8042000F0C7FB032000F032F8DC
:1001F000042000F0C1FB032000F02CF8042000F0E4
:10020000BBFB022000F026F8282000F023F808208D
:1002100000F020F8012000F01DF8062000F01AF888
:10022000012000F017F80C2000F014F800BF183778
:10023000BD4680BDF0140008F4140008F81400084E
:10024000FC1400080015000804150008000C01400B
:100250000008014080B582B000AF0346FB71664BD9
:10026000DB68654A23F40063D360FB79DB09DBB20A
:1002700003F00103002B06D1604BDB685F4A23F4D7
:100280008053D36005E05D4BDB685C4A43F48053E8
:10029000D360FB799B09DBB203F00103002B06D18D
:1002A000564BDB68554A23F40053D36005E0534BAB
:1002B000DB68524A43F40053D360FB795B09DBB23D
:1002C00003F00103002B06D14C4BDB684B4A23F4AF
:1002D0008043D36005E0494BDB68484A43F48043E0
:1002E000D360FB791B09DBB203F00103002B06D1BD
:1002F000424BDB68414A23F40043D36005E03F4BA7
:10030000DB683E4A43F40043D3603B4BDB683A4A28
:1003100043F48073D360012000F02EFB364BDB6882
:10032000354A23F48073D360012000F025FBFB796C
:10033000DB08DBB203F00103002B06D12F4BDB6897
:100340002E4A23F48053D36005E02C4BDB682B4A04
:1003500043F48053D360FB799B08DBB203F00103C5
:10036000002B06D1254BDB68244A23F40053D360CD
:1003700005E0224BDB68214A43F40053D360FB794C
:100380005B08DBB203F00103002B06D11B4BDB68DB
:100390001A4A23F48043D36005E0184BDB68174A00
:1003A00043F48043D360FB7903F00103002B06D1B3
:1003B000124BDB68114A23F40043D36005E00F4B76
:1003C000DB680E4A43F40043D3600B4BDB680A4AF8
:1003D00043F48073D360012000F0CEFA064BDB6853
:1003E000054A23F48073D360012000F0C5FA00BFF2
:1003F0000837BD4680BD00BF00080140000C014029
:1004000080B582B000AF0346FB71664BDB68654A7E
:1004100043F40063D360FB79DB09DBB203F0010333
:10042000002B06D1604BDB685F4A23F48053D36016
:1004300005E05D4BDB685C4A43F48053D360FB7995
:100440009B09DBB203F00103002B06D1564BDB689E
:10045000554A23F40053D36005E0534BDB68524AFE
:1004600043F40053D360FB795B09DBB203F0010373
:10047000002B06D14C4BDB684B4A23F48043D360FE
:1004800005E0494BDB68484A43F48043D360FB797D
:100490001B09DBB203F00103002B06D1424BDB68E2
:1004A000414A23F40043D36005E03F4BDB683E4AFA
:1004B00043F40043D3603B4BDB683A4A43F4807318
:1004C000D360012000F058FA364BDB68354A23F43C
:1004D0008073D360012000F04FFAFB79DB08DBB2B8
:1004E00003F00103002B06D12F4BDB682E4A23F4C7
:1004F0008053D36005E02C4BDB682B4A43F48053D8
:10050000D360FB799B08DBB203F00103002B06D11B
:10051000254BDB68244A23F40053D36005E0224BCB
:10052000DB68214A43F40053D360FB795B08DBB2FC
:1005300003F00103002B06D11B4BDB681A4A23F49E
:100540008043D36005E0184BDB68174A43F48043CF
:10055000D360FB7903F00103002B06D1124BDB685B
:10056000114A23F40043D36005E00F4BDB680E4AC9
:1005700043F40043D3600B4BDB680A4A43F48073B7
:10058000D360012000F0F8F9064BDB68054A23F43C
:100590008073D360012000F0EFF900BF0837BD463B
:1005A00080BD00BF00080140000C014080B500AFD5
:1005B000054B1B689847054B5B69044A43F00103F0
:1005C000536100BF80BD00BF340000200004014023
:1005D00080B500AF054B5B689847054B5B69044AE3
:1005E00043F00203536100BF80BD00BF3400002010
:1005F0000004014080B500AF054B9B689847054B50
:100600005B69044A43F00403536100BF80BD00BF2F
:10061000340000200004014080B500AF054BDB68CA
:100620009847054B5B69044A43F00803536100BFD8
:1006300080BD00BF340000200004014080B500AF41
:10064000054B1B699847054B5B69044A43F010034F
:10065000536100BF80BD00BF340000200004014092
:1006600080B500AF284B5B695B0903F00103002BE9
:1006700008D0264B5B699847234B5B69224A43F0BD
:1006800020035361204B5B699B0903F00103002B9E
:1006900008D01E4B9B6998471B4B5B691A4A43F075
:1006A00040035361184B5B69DB0903F00103002B26
:1006B00008D0164BDB699847134B5B69124A43F02D
:1006C00080035361104B5B691B0A03F00103002B8D
:1006D00008D00E4B1B6A98470B4B5B690A4A43F4E0
:1006E00080735361084B5B695B0A03F00103002BC5
:1006F00008D0064B5B6A9847034B5B69024A43F498
:100700000073536100BF80BD00040140340000202D
:1007100080B500AF304B5B699B0A03F00103002BEF
:1007200008D02E4B9B6A98472B4B5B692A4A43F4AF
:1007300080635361284B5B69DB0A03F00103002BE4
:1007400008D0264BDB6A9847234B5B69224A43F467
:1007500000635361204B5B691B0B03F00103002B0B
:1007600008D01E4B1B6B98471B4B5B691A4A43F41E
:1007700080535361184B5B695B0B03F00103002B43
:1007800008D0164B5B6B9847134B5B69124A43F4D6
:1007900000535361104B5B699B0B03F00103002B6B
:1007A00008D00E4B9B6B98470B4B5B690A4A43F48E
:1007B00080435361084B5B69DB0B03F00103002BA3
:1007C00008D0064BDB6B9847034B5B69024A43F446
:1007D0000043536100BF80BD00040140340000208D
:1007E00080B485B000AF786039600023FB604F4B68
:1007F0009B694E4A43F0040393614C4B9B694B4AFF
:1008000043F008039361494B9B69484A43F0100346
:1008100093613B689B78052B0BD03B689B78042B3E
:1008200007D03B689B78062B03D03B689B78072B4F
:100830000AD13B689B78043B9B003A68D27813430B
:1008400003F00F03FB6037E03B689B78002B03D07D
:100850003B689B78012B06D13B689B789B0003F09B
:100860000F03FB6028E03B689B78022B0CD1082328
:10087000FB607B68DB683A681288114601228A4077
:100880001A437B68DA6017E03B689B78032B0DD135
:100890000823FB607B68DB683A68128811460122F6
:1008A0008A40D2431A407B68DA6005E03B689B7857
:1008B000082B01D10423FB603B681B88072B17D84A
:1008C0007B681B683A68128892000F2101FA02F2D5
:1008D000D2431A407B681A607B681A683B681B88A1
:1008E0009B00F96801FA03F31A437B681A6018E069
:1008F0007B685B683A681288083A92000F2101FA17
:1009000002F2D2431A407B685A607B685A683B689F
:100910001B88083B9B00F96801FA03F31A437B68C4
:100920005A6000BF1437BD4680BC704700100240BB
:1009300080B483B000AF78600B467B8013467B7039
:100940007B78002B0AD17B68DB687A88012101FA69
:1009500002F2D2431A407B68DA6008E07B68DB6809
:100960007A88012101FA02F21A437B68DA6000BF3B
:100970000C37BD4680BC704780B485B000AF78604E
:100980000023FB6003E000BFFB680133FB607B6872
:100990004FF4487203FB02F2FB689A42F3D800BF9F
:1009A00000BF1437BD4680BC7047000080B400AF64
:1009B000034B5B68034B1846BD4680BC704700BFC5
:1009C0000010024000127A0080B582B000AF094BDF
:1009D0005B681B09DBB203F00F03FB71FFF7E6FF57
:1009E0000246FB790449CB5C22FA03F31846083728
:1009F000BD4680BD001002400800002080B582B0D6
:100A000000AF094B5B681B0ADBB203F00703FB7105
:100A1000FFF7DAFF0246FB790449CB5C22FA03F3C5
:100A200018460837BD4680BD001002400000002077
:100A300080B582B000AF094B5B68DB0ADBB203F024
:100A40000703FB71FFF7C0FF0246FB790449CB5C4B
:100A500022FA03F318460837BD4680BD0010024055
:100A60000000002080B588B000AF78600023FB83D1
:100A70000023BB837B685B699E4A934275D19E4B82
:100A80009B699D4A43F0040393619B4B9B699A4A7F
:100A900043F001039361984B9B69974A43F4805359
:100AA00093617B681B88042B0CBF01230023DBB2FE
:100AB0001AB2B7F91E3013431BB2FB83FB8B002B1A
:100AC00015D005233B830623BB760723BB82062371
:100AD000BB7506233B820123BB747B681B89B3F57E
:100AE000007F29D00423BB810623BB7324E07B68ED
:100AF0001B88002B0CBF01230023DBB21AB2B7F90D
:100B00001E3013431BB2FB83FB8B002B14D0052339
:100B10003B830123BB760723BB820123BB750623DE
:100B20003B820623BB747B681B89B3F5007F03D02F
:100B30000423BB810123BB7307F1180319466F48D7
:100B4000FFF74EFE07F10C0319466C48FFF748FE0D
:100B500007F1100319466948FFF742FE07F1140335
:100B600019466648FFF73CFE79E07B685B69644A9A
:100B7000934274D1604B9B695F4A43F008039361D1
:100B80005D4B9B695C4A43F0010393615A4BDB69FF
:100B9000594A43F48043D3617B681B88042B0CBF04
:100BA00001230023DBB21AB2B7F91E3013431BB284
:100BB000FB83FB8B002B15D00D233B830623BB76D9
:100BC0000F23BB820623BB750E233B820123BB741C
:100BD0007B681B89B3F5007F29D00C23BB810623DA
:100BE000BB7324E07B681B88002B0CBF0123002310
:100BF000DBB21AB2B7F91E3013431BB2FB83FB8B77
:100C0000002B14D00D233B830123BB760F23BB8223
:100C10000123BB750E233B820623BB747B681B89B3
:100C2000B3F5007F03D00C23BB810123BB7307F115
:100C3000180319463348FFF7D3FD07F10C03194693
:100C40003048FFF7CDFD07F1100319462D48FFF797
:100C5000C7FD07F1140319462A48FFF7C1FDFB8BB6
:100C600023F00403FB837B681A88FB8B1343FB830D
:100C70007B685A88FB8B1343FB837B689A88FB8BCA
:100C80001343FB837B68DA89FB8B1343FB83FB8B6A
:100C900023F00203FB837B685A89FB8B1343FB839E
:100CA000FB8B23F00103FB837B689A89FB8B134347
:100CB000FB83FB8B23F03803FB837B68DA88FB8B99
:100CC0001343FB837B681B89002B28D17B681B881F
:100CD000042B24D1BB8B43F00403BB837B685B698B
:100CE000044A934210D1012204210448FFF720FE58
:100CF00023E000BF00300140001002400008014026
:100D000000380040000C01407B685B69294A93422F
:100D100013D101220C212848FFF70AFE0DE07B6861
:100D20001B89B3F5007F09D1FB8B43F40073FB8370
:100D3000FB8B43F48073FB8300E000BF7B681B8A5E
:100D4000002B23D07B681A8ABB8B1343BB837B6841
:100D50005B691A4A93420AD1194B1B68184A43F03F
:100D6000080313607B689B69164A13600EE07B687A
:100D70005B69104A934209D1114B1B68104A43F03A
:100D8000100313607B689B690E4A53607B685B6944
:100D9000FA8B1A607B685B691A687B685B6942F052
:100DA00040021A607B685B69BA8B5A6000BF2037CB
:100DB000BD4680BD00380040000C014000300140BD
:100DC00004E100E07000002080B485B000AFF8605E
:100DD000B9607A607B8000BFFB689B6803F080038A
:100DE000002BF9D17B88002B07D100BFFB689B68E3
:100DF0005B0803F00103002BF8D0BB681B881A4680
:100E0000FB68DA607B88002B06D100BFFB689B681B
:100E100003F00103002BF9D0FB68DB689AB27B6812
:100E20001A8000BFFB689B6803F08003002BF9D198
:100E300000BF00BF1437BD4680BC704780B582B08C
:100E400000AF124B9B685B0803F00103DAB23B79F9
:100E500062F300033B710D4B9B6803F00103DAB2B0
:100E60003B7962F341033B71084B9B681B0903F01C
:100E70000103DAB23B7962F300033B71044B1B6858
:100E80003879984700BF0837BD4680BD0030014023
:100E90007000002080B582B000AF124B9B685B08E9
:100EA00003F00103DAB23B7962F300033B710D4BAF
:100EB0009B6803F00103DAB23B7962F341033B71B3
:100EC000084B9B681B0903F00103DAB23B7962F31C
:100ED00000033B71044B5B683879984700BF0837C3
:100EE000BD4680BD003800407000002080B588B04D
:100EF00000AF78607B681B68704A934252D1704B98
:100F00009B696F4A43F0040393616D4B9B696C4A84
:100F100043F0010393616A4B9B69694A43F4804340
:100F20009361FFF785FD0346664A13607B681B6982
:100F3000654A13607B689B79002B0ED1634B1B685D
:100F4000624A43F0200313607B681B68DA687B68A1
:100F50001B6842F02002DA600DE05D4B1B685C4AC2
:100F600043F0200313607B681B68DA687B681B68AA
:100F700022F02002DA6009233B820623BB7401239E
:100F8000FB740A23BB810123BB7307F110031946CD
:100F90005048FFF725FC07F10C0319464D48FFF7B1
:100FA0001FFCC1E07B681B684B4A934252D1444B03
:100FB0009B69434A43F004039361414B9B69404A58
:100FC00043F0010393613E4BDB693D4A43F4003338
:100FD000D361FFF713FD03463A4A13607B681B6930
:100FE000394A53607B689B79002B0ED1374B1B68C5
:100FF000364A43F0400313607B681B68DA687B68FD
:101000001B6842F02002DA600DE0314B1B68304A69
:1010100043F0400313607B681B68DA687B681B68D9
:1010200022F02002DA6002233B820623BB740123F4
:10103000FB740323BB810123BB7307F11003194623
:101040002448FFF7CDFB07F10C0319462148FFF7B1
:10105000C7FB69E07B681B68204A934264D1184B48
:101060009B69174A43F008039361154B9B69144A27
:1010700043F001039361124BDB69114A43F480236F
:10108000D361FFF7BBFC03460E4A13607B681B6904
:101090000D4A93607B689B79002B21D10B4B1B6819
:1010A0000A4A43F0800313607B681B68DA687B6838
:1010B0001B6842F02002DA6020E000BF00380140E7
:1010C00000100240840000207800002004E100E0CD
:1010D00084E100E000080140004400400048004076
:1010E000624B1B68614A43F0800313607B681B6896
:1010F000DA687B681B6822F02002DA600A233B82F0
:101100000623BB740123FB740B23BB810123BB7338
:1011100007F1100319465648FFF762FB07F10C036D
:1011200019465348FFF75CFB7B681B68DA687B68ED
:101130001B6822F48052DA607B681B68DA687B687F
:101140001B7B1B0319467B681B680A43DA607B68BC
:101150001B681A697B681B6822F440521A617B681D
:101160001B681A697B685B7B1B0319467B681B68DD
:101170000A431A617B681B79002B10D17B681B68BE
:10118000DA687B681B6842F00802DA607B681B68DB
:10119000DA687B681B6822F00402DA6028E07B686A
:1011A0001B79012B10D17B681B68DA687B681B6890
:1011B00022F00802DA607B681B68DA687B681B68CB
:1011C00042F00402DA6013E07B681B79022B0FD136
:1011D0007B681B68DA687B681B6842F00802DA608B
:1011E0007B681B68DA687B681B6842F00402DA607F
:1011F000204B1A6813469B0013449A001A447B68DC
:101200009B689B00B2FBF3F37B617B691A4AA2FBEC
:1012100003235B09FB61FB69642202FB03F37A6928
:10122000D31A1B013233144AA2FB03235B09BB61AF
:10123000BB690F2B04D9FB690133FB610023BB6140
:10124000FB691901BB6903F00F027B681B680A4345
:101250009A607B681B68DA687B681B6842F40052FE
:10126000DA6000BF2037BD4680BD00BF84E100E0EA
:10127000000C0140840000201F85EB5180B483B036
:1012800000AF786000BF7B681B685B0903F0010357
:10129000002BF8D07B685B689BB218460C37BD46C4
:1012A00080BC704780B483B000AF78600B467B8011
:1012B00000BF7B681B68DB0903F00103002BF8D03B
:1012C0007A887B685A6000BF7B681B689B0903F0C3
:1012D0000103002BF8D000BF00BF0C37BD4680BC17
:1012E0007047000080B500AF024B1B68984700BFF5
:1012F00080BD00BF7800002080B500AF024B5B6866
:10130000984700BF80BD00BF7800002080B500AFC7
:10131000024B9B68984700BF80BD00BF780000204B
:10132000B0B58EB000AF394B07F124041D460FCD88
:101330000FC42B68236007F1080300221A605A606B
:101340009A60DA601A615A619A6104233B813823FA
:10135000FB814FF400733B828023FB822C4BFB61AB
:10136000FEF706FF07F108031846FFF77BFB07F1BE
:1013700024031846FFF7BAFD0023FB80254B1B888A
:101380000A2B20D0234B1B880D2B1CD0214B1B88F4
:10139000002B18D01F4B1B88DBB21846FFF730F824
:1013A0001C4B1B8819461C48FFF77CFFBA1D002305
:1013B00018491748FFF708FD0520FFF7DDFA154B20
:1013C00000221A800FE0134B1B880A2B03D0114B0D
:1013D0001B880D2B07D10120FEF73CFF0D4B00228F
:1013E0001A800023FB80BA1D00230A490848FFF732
:1013F000EBFC0520FFF7C0FAFB88002BBED0FB8872
:1014000019460548FFF74EFFB8E700BF081500086A
:1014100000300140880000200038014080B500AF56
:101420000448FFF72BFF03461A46034B1A8000BF00
:1014300080BD00BF00380140880000200D4885466F
:10144000AFF300800C480D490D4A002302E0D45848
:10145000C4500433C4188C42F9D30A4A0A4C0023FE
:1014600001E013600432A242FBD300F011F8FFF751
:1014700057FFFEE700500020000000201800002069
:1014800024150008180000208C000020FEE7000052
:1014900070B500260C4D0D4C641BA410A64209D15A
:1014A00000F01AF800260A4D0A4C641BA410A6424C
:1014B00005D170BD55F8043B98470136EEE755F865
:1014C000043B98470136F2E71C1500081C1500087C
:1014D0001C15000820150008F8B500BFF8BC08BCB2
:1014E0009E467047F8B500BFF8BC08BC9E467047E2
:1014F0000C0004010D0004010E0004010F000401A2
:101500000B00040108000401003801400201000042
:0C15100080250000000000001D140008F1
:04151C00550100086D
:04152000310100088D
:1015240000000000010203040000000000000000AD
:08153400010203040607080987
:040000050800143D9E
:00000001FF
